:020000000C945E
:10000200D8000C94D5010C9454020C9400000C946A
:1000120000000C9400000C9400000C9400000C945E
:1000220000000C9400000C9400000C9400000C944E
:1000320000000C9400000C9400000C9400000C943E
:1000420000000C9400000C9400000C9405010C9428
:1000520000001027E80364000A00010000100001FC
:1000620010000100000000000000000000005374B6
:100072006F702057617463682020253032643A25FE
:100082003032643A253032642020202020202000A3
:1000920054696D652020253032643A253032643A45
:1000A200253032642020202A2A414C41524D2A2AEE
:1000B2000054696D652020253032643A253032645F
:1000C2003A253032642020202020202020202020A9
:1000D200202000416C61726D2020253032643A2567
:1000E2003032643A25303264202020202020202023
:1000F200202020200042322E205365742053656355
:100102006F6E64202D2D2042312E204D696E757444
:10011200650042322E20536574204D696E757465F8
:10012200202D2D2042312E20486F75720042322E32
:100132002053657420486F7572202D2D2042312E78
:1001420020486F6D650042312E205365742054693A
:100152006D65202D2D2042322E2053572F416C6188
:10016200726D0042312E2053657420416C61726DB4
:10017200202D2D2042322E2053746F70205761742F
:1001820063680042322E2053746F702F5374617271
:1001920074202D2D2042312E20486F6D650080C0C5
:1001A2000A00040066000200B201A0010000F894F7
:1001B200EE27ECBBF1E0FBBFEBBFE5BF8DE0A2E0B9
:1001C200BB27ED938A95E9F780E094E0A0E6ED93F2
:1001D2000197E9F7E2EAF1E085919591009761F0E4
:1001E200A591B59105901590BF01F00105900D9272
:1001F2000197E1F7FB01F0CFEFE5EDBFE4E0EEBFE1
:10020200C0E6D1E00C940F030E949A05E0916C01C4
:10021200F0916D01309709F453C0F60131966F01E8
:100222003197EAE0F0E0CE16DF060CF449C0CC24A8
:10023200DD24A0E6B1E00E94A805A0916001B09182
:100242006101DC971CF1E0E0E0936001E093610161
:10025200A2E6B1E00E94A805A0916201B0916301FB
:10026200DC97A4F0E0E0E0936201E0936301A4E68E
:10027200B1E00E94A805A0916401B0916501589770
:100282002CF0E0E0E0936401E09365010E94AE058A
:10029200E0E7F0E0FA93EA93E0916401F0916501FE
:1002A2000E94B305E0916201F09163010E94B305DF
:1002B200E0916001F09161010E94B3050E94B805CE
:1002C200F20131962F01EAE0F0E04E165F060CF4DF
:1002D2006AC0442455240E94BD0564F06624772434
:1002E2000E94C5053CF0882499240E94CD0514F093
:1002F200AA24BB24A0917001B0917101189731F02A
:10030200E0916E01F0916F01309709F02CC0E091FD
:100312006601F0916701E615F70571F4E091680155
:10032200F0916901E815F90539F4E0916A01F0915B
:100332006B01EA15FB0509F005C00E94AE05E2E972
:10034200F0E004C00E94AE05E3EBF0E0FA93EA931A
:10035200F5010E94B305F4010E94B305F3010E9466
:10036200B3050E94B805E0916E01F0916F013097DC
:10037200D1F00E94AE05E5EDF0E0FA93EA93E09148
:100382006A01F0916B010E94B305E0916801F0915E
:1003920069010E94B305E0916601F09167010E9434
:1003A200B3050E94B8052CC10E94D50549F40E94EC
:1003B200DC050E94E305E1E0F0E00E94EC0572C07A
:1003C200E130A0E0FA0749F40E94DC050E94F10541
:1003D200E2E0F0E00E94EC0565C0E230A0E0FA073E
:1003E20049F40E94DC050E94FA05E3E0F0E00E9475
:1003F200EC0558C0E330A0E0FA0749F40E94030676
:100402000E9408060E9412060E9417064BC0E430A2
:10041200A0E0FA0789F4E5E0F0E00E94EC05E1E0F3
:10042200F0E0E0936E01F0936F010E9403060E94D8
:10043200E3050E94170636C0E530A0E0FA0739F45A
:10044200E6E0F0E00E941D060E94F1052AC0E630B7
:10045200A0E0FA0739F4E7E0F0E00E941D060E94EE
:10046200FA051FC0E730A0E0FA0761F40E94030614
:100472000E940806E0936E01E0936F01E0E00E94A3
:1004820012060FC0E830A0E0FA0761F40E940306EA
:100492000E9408060E941206E0E0E0936C01E093DD
:1004A2006D011FD1ADC00E94D50551F41AD1E4E00F
:1004B200F0E00E941D06E5E6F1E00E941F06A0C0E2
:1004C200E130A0E0FA0741F40E94BD0514F0662471
:1004D2007724E1E0F0E090C0E230A0E0FA0741F4D6
:1004E2000E94C50514F088249924E2E0F0E084C05B
:1004F200E330A0E0FA0741F40E94CD0514F0AA24EB
:10050200BB24E3E0F0E078C0E430A0E0FA0701F5B4
:10051200E8E0F0E00E94EC05CC24DD24E0E0E0938A
:100522006001E0936101E0936201E0936301E09373
:100532006401E0936501E1E0F0E0E0936C01F09387
:100542006D010E94DC05E5E8F1E00E941F0658C03B
:10055200E530A0E0FA0791F4A6E6B1E00E94A80512
:10056200A0916601B0916701DC972CF0E0E0E09386
:100572006601E0936701E5E0F0E03EC0E630A0E00E
:10058200FA0791F4A8E6B1E00E94A805A0916801DB
:10059200B0916901DC972CF0E0E0E0936801E09310
:1005A2006901E6E0F0E028C0E730A0E0FA0791F444
:1005B200AAE6B1E00E94A805A0916A01B0916B0180
:1005C20058972CF0E0E0E0936A01E0936B01E7E0DA
:1005D200F0E012C0E830A0E0FA0791F4A0916C01BB
:1005E200B0916D01E1E0F0E0EA1BFB0BE0936C01DE
:1005F200F0936D01E8E0F0E0E0937001F093710197
:10060200E991EFBFF991E991B991A99199918991F4
:1006120079916991F990199009901895ECE0E2BBF3
:10062200E0E0E1BBEDE0E3BFE0E0E2BFE0E6ECBF2B
:10063200E2E8E9BFEBB7E06CEBBFEAE0E5BFE0E080
:10064200E4BFE0ECEABFA0E28BD078940E940306FC
:10065200E8E4F1E00E941F06E0E0EA93A0E030D077
:10066200A2E7B1E06CD0E0E0EA93A1E029D0A2E9F0
:10067200B1E065D0A4EFB1E00E945F06EDCFFFCFFD
:10068200AA93EBB3EF70AE2FE881E07FEA2BEBBBCE
:1006920082E08A95F1F7DA9A82E08A95F1F7DA98A0
:1006A20082E08A95F1F788C0AA93A881E9DFE88100
:1006B200E295E883A881E4DF81E18A95F1F77CC0C5
:1006C200AA93E881F0E0EE54FE4FE081A981AE0FDB
:1006D200EBDFE981E093B601E881E093B70122966E
:1006E2000895A2E00E942606ACE0DEDFA1E00E94AF
:1006F2002606E0E0E093B701E093B6010895AA93DD
:10070200A881AA3031F0E091B801A091B601AE17EC
:1007120060F0E0E0EA93A091B701AF5FA093B70168
:10072200CFDFA881AA3009F447C0E091B601EF5F9C
:10073200E093B601D89AA881B7DFD8983DC0BA93A2
:10074200AA931A93A981BA81ED91A983BA831E2F24
:10075200E03019F0A12FD3DFF5CF18812396089549
:10076200AA93EAB3E06FEABBD29AD09AD19ADA9806
:10077200D898D998E881E093B801E058E093B401A1
:10078200E881E054E093B501A4E1B0E00E945F0685
:100792000E942C060E942C060E942C06A0E270DF0A
:1007A20081E28A95F1F7A8E27FDFA4E07DDFA5E888
:1007B2007BDFA6E079DF95DF21960895BA93AA93AD
:1007C2001A930A93AA81BB8112960E9476063097E9
:1007D20029F1AA81BB8114960E9476068F01309777
:1007E20061F00230E0E01E0780F0F80131978F01DE
:1007F200AA81BB811496ED93FC93AA81BB811296C8
:100802000E94A8053197AC81A083AA81BB810E9476
:100812007606FF2312F00E94A80506C0AA81BB81BA
:10082200EFEFFFEFED93FC93198108812596089570
:10083200BA93AA9326970E94830610E0AC85BD85E1
:10084200E0E0F0E0ED93FC93EA89FB893196EA8BD4
:10085200FB8B3197E4912E2FE03009F415C1E12F83
:10086200E03039F4253211F411E002C00E9433065F
:100872000AC1E130A9F4253219F40E94330602C1FB
:1008820012E040E000E02D3211F401E0FCC02B3216
:1008920011F44BE2F8C0203211F440E2F4C002C07D
:1008A200E23039F450E013E0203311F40068EBC079
:1008B20003C0E33009F0E7C0203310F02A3308F018
:1008C20007C0AAE05A9F502DE22FE0535E0FDBC013
:1008D200E22FE33649F40E943A06E889F989A481B5
:1008E200AA930E944006CEC0E33741F40E943A0622
:1008F2000E9446060E9481051E2F0AC0E03761F45D
:100902000E943A060E9446060E948D051E2F08602C
:1009120002600F7730E034C0E43611F0E93611F4AA
:10092200046002C0E53731F4E4E5F0E0EE83FF83D2
:1009320015E00CC0E83511F4086003C0E83709F08F
:10094200A1C0EEE5F0E0EE83FF8314E002FF14C0E5
:100952000E943A060E945006AB85AA233AF4EA8521
:10096200FB850E946D06EA87FB874DE2403011F05D
:100972001F5F01C00B7F04C00E943A060E9450060E
:1009820000FD11C0151778F407FF08C002FF04C06C
:100992000B7F242F115001C020E301C020E20E94EE
:1009A20033065150EFCF312F01FF17C03030A1F085
:1009B20003FF06C0EE81FF812591EE83FF8305C010
:1009C200AE81BF812D91AE83BF830E94330650302A
:1009D20009F051503150EACF4BC020E3EE81FF8144
:1009E2000E947A06E887F987EE81FF813296EE83CC
:1009F200FF83E885F985AA85BB85AE17BF0750F04E
:100A02002F5FA885B985EA85FB85EA1BFB0BEA8780
:100A1200FB87EFCF2A3328F003FF02C0295F01C012
:100A2200295D04FD1AC0213320F4A885B9851197E8
:100A320009F409C0531710F000FF01C013C020E2EF
:100A420007FF0BC020E3006102FF07C00B7F4A9340
:100A52000E944006503009F051500E943306503037
:100A620009F051503150A885B985129708F0B5CFD9
:100A720000FF08C0503031F05150E0E2EA930E948A
:100A82004006F8CF10E0E0CEAC85BD850E94760628
:100A92000E948A0664960895FF92F82E26970E9475
:100AA20085060E945806309719F4EFEFFFEF23C036
:100AB200DE0116960E9469068D010E945806EE8399
:100AC200FF83E0E0E887E987DE011A960E94690663
:100AD2000E947606FA93EA931A930A93EFEDF3E0F3
:100AE200FA93EA93DE011A96A3DE9F01AE81BF81DB
:100AF200E0E0EC93F9010E948C062A96FF9008959B
:100B0200BA93AA93A991B991EE27FF276D91662313
:100B120011F03196FBCF0895BA93AA93AA27BB2767
:100B2200E991F9910590002011F01196FBCFFD019A
:100B320008950A921A92FA926A937A938A939A93EE
:100B4200AA93BA93EA93FA93EFB7EA930895ED91D1
:100B5200FD913196FE93EE930895E2E9F1E0FA9366
:100B6200EA9308950E9471060E947E0608958CE021
:100B72000E944D0560960895F30131963F01ECE322
:100B8200F0E06E167F060895F40131964F01ECE312
:100B9200F0E08E169F060895F50131965F01E8E1B7
:100BA200F0E0AE16BF060895C4DFE0917001F09147
:100BB2007101309708950E947203E2E7F1E0FA931F
:100BC200EA930895E7EFF0E0FA93EA9380E00E9457
:100BD2004D0524960895E0937001F09371010895F4
:100BE200E4E1F1E0FA93EA9380E00E944D05249655
:100BF2000895EFE2F1E0FA93EA9380E00E944D0556
:100C020024960895E2E7F1E0FA93EA930895E8E47E
:100C1200F1E0FA93EA9380E00E944D052496E0E029
:100C22000895E0937001E093710108950E947203A8
:100C3200A5E0B0E00C945F06CEDFE4CFFA93EA932E
:100C420080E00E944D05249608950E945503A3E07A
:100C5200B0E00C945F06A0E30E94410381E28A9512
:100C6200F1F708952A93AD85BE85EF85F889099538
:100C72000895E889F9893497E88BF98B0895AD8551
:100C8200BE85EF85F88909950895A889B9891496D2
:100C92000E947606EE83FF83AE81BF810895A88904
:100CA200B98914960E947606EA87FB870895DE01C9
:100CB2001C960E9469060E9476060895109639F0E5
:100CC2008AEF90E00197F1F7A8951197C9F7089577
:100CD2000024AF0DB01D0895F195E195F0400895FF
:100CE2006F2F660F660B762F0895ED91FC91119789
:100CF20008950590F491E02D08957A936A93FA93FA
:100D0200EA9308955A934A933A932A931A930A9329
:100D120008955D814C813B812A8119810881089562
:00000001FF
