:0A0000000C94C9000C9400000C944D
:10000A0000000C9400000C9400000C9400000C9466
:10001A0000000C9400000C9400000C9400000C9456
:10002A0000000C9400000C9400000C9400000C9446
:10003A0000000C9400000C9400000C9400000C9436
:10004A0000000C9400000C940000776F5F3F31327F
:10005A00333435363738392A30231027E803640019
:10006A000A00010000100001100001000000000059
:10007A0000000000303A4E756D2020313A4261731B
:10008A0069632020323A4164762020332E47656F17
:10009A0000457870723A20004572726F7200456EA0
:1000AA00746572202A20746F20636C6561722E0059
:1000BA0025733D257300456E74657220412044699D
:1000CA006769743A20302D3900313A2B2020323AB0
:1000DA002D2020333A2F2020343A2A2020353A5E28
:1000EA0020363A2820373A2900313A73717274203F
:1000FA0020323A6578702020333A6C6F67202034BA
:10010A003A6E656700313A73696E2020323A636F3E
:10011A00732020333A74616E0025732563002573BA
:10012A00737172740025736578700025736C6F673C
:10013A000025736E65670025732B0025732D002536
:10014A00732F0025732A0025735E00257328002566
:10015A00732900257373696E002573636F73002515
:10016A007374616E000080C001002D4E414E00493B
:10017A004E460000080004007600020040027001AA
:10018A000100450272010000F894EE27ECBBF1E091
:10019A00FBBFEBBFE5BF8DE0A2E0BB27ED938A95DD
:1001AA00E9F780E094E0A0E6ED930197E9F7EEE73E
:1001BA00F1E085919591009761F0A591B59105902F
:1001CA001590BF01F00105900D920197E1F7FB012F
:1001DA00F0CFEFE5EDBFE4E0EEBFC0E6D1E00C946E
:1001EA00F600EFE7E2BBE8E7E1BBA0E20E948D067A
:1001FA000E94C00B0E94C50B882499240E94CE0B32
:10020A000E94D30B00E010E00032E0E01E075CF42D
:10021A000E94DC0B0E94E20B0E94EB0BE8E7EC93D6
:10022A000F5F1F4FF1CF0E945906E0E0EA93A0E06A
:10023A000E944C06A0E6B1E00E947C06E0E0EA9348
:10024A00A1E00E944C06A0E8B1E00E947C0602D020
:10025A00EACFFFCFAE970E94F00BE0E0EA83EB8390
:10026A001A93B0D41E2F133209F041C00E94F40B26
:10027A0021F40E94F90B0E94080CE4E0F0E02F013F
:10028A00EED1E983FA836B837C830E94160CA33A2E
:10029A00E9E7BE07EBEE8E07ECE49E0749F4FE01A0
:1002AA003596FA93EA93E2EAF0E00E941B0C0AC040
:1002BA000E94220C0E940910E2E0EA93DE011A96DB
:1002CA000E9496080E94C00BE8EAF0E00E941B0C0C
:1002DA000E94270CEAEBF0E00E942C0CFE013D96EE
:1002EA00662777270E94350C0E943C0CB5C1F201A3
:1002FA003097C1F5E12FF0E0E033A0E0FA0741F4CE
:10030A00E1E0F0E02F010E94C00BE0ECF0E023C036
:10031A00E133A0E0FA0741F4E3E0F0E02F010E94A4
:10032A00C00BE3EDF0E017C0E233A0E0FA0741F4B6
:10033A00E2E0F0E02F010E94C00BE3EFF0E00BC017
:10034A00E333A0E0FA0769F4E5E0F0E02F010E9448
:10035A00C00BEFE0F1E0FA93EA9380E00E942F08E5
:10036A0024967AC1E130A0E0FA07B1F5103391F092
:10037A00113381F0123371F0133361F0143351F0F9
:10038A00153341F0163331F0173321F0183311F0D9
:10039A00193309F5E1E0F0E05F01F301AAE0B0E00A
:1003AA000E94D40FDF01E12FF0E0F097EA0FFB1F64
:1003BA003F010E94400C0E94C50B0E94270CE3E2F9
:1003CA00F1E00E942C0CE12FFF27662777270E9475
:1003DA00350C0E943C0C40C1E230A0E0FA0709F05B
:1003EA004FC00E94F40B41F4AA24BB240E94F90BCB
:1003FA000E94430C0E94480C113331F0123321F051
:10040A00133311F01433D9F50E94400C0E94C50B26
:10041A00113351F40E94270CE8E2F1E00E942C0CFF
:10042A000E94500CE3E5EC93123351F40E94270C1E
:10043A00EFE2F1E00E942C0C0E94500CE5E6EC93EE
:10044A00133351F40E94270CE5E3F1E00E942C0CCF
:10045A000E94500CECE6EC93143351F40E94270CE2
:10046A00EBE3F1E00E942C0C0E94500CEEE6EC93B8
:10047A000E94CE0B0E943C0CF40131964F01ECC055
:10048A00E330A0E0FA0709F076C00E94F40B21F4E9
:10049A000E94F90B0E94080C113369F0123359F0CB
:1004AA00133349F0143339F0153329F0163319F0A0
:1004BA00173309F05FC00E94400C0E94C50B11332C
:1004CA0051F40E94270CE1E4F1E00E942C0C0E94F6
:1004DA00500CEBE2EC93123351F40E94270CE5E442
:1004EA00F1E00E942C0C0E94500CEDE2EC931333C5
:1004FA0051F40E94270CE9E4F1E00E942C0C0E94BE
:10050A00500CEFE2EC93143351F40E94270CEDE403
:10051A00F1E00E942C0C0E94500CEAE2EC93153395
:10052A0051F40E94270CE1E5F1E00E942C0C0E9494
:10053A00500CEEE5EC93163351F40E94270CE5E5D6
:10054A00F1E00E942C0C0E94500CE8E2EC93173365
:10055A0051F40E94270CE9E5F1E00E942C0C0E945C
:10056A00500CE9E2EC930E94CE0B0E943C0CF40181
:10057A0031964F0171C0E530A0E0FA0709F041C099
:10058A000E94F40B41F4AA24BB240E94F90B0E9496
:10059A00430C0E94480C113321F0123311F013332B
:1005AA0079F50E94400C0E94C50B113351F40E9448
:1005BA00270CEDE5F1E00E942C0C0E94500CE3E7B9
:1005CA00EC93123351F40E94270CE3E6F1E00E9407
:1005DA002C0C0E94500CE3E6EC93133351F40E9466
:1005EA00270CE9E6F1E00E942C0C0E94500CE4E78B
:1005FA00EC930E94CE0B0E943C0CF40131964F0101
:10060A002BC0E430A0E0FA0739F51A3229F522970F
:10061A000E94F00B0E94400C0E94C50B0E94CE0B58
:10062A000E94D30B88249924E0E0E883E983A88117
:10063A00B981909784F4E881F9810E94550C0E944F
:10064A00E20BE881F9810E945A0CE881F98131961E
:10065A00E883F983ECCF22961881AF9608952897FC
:10066A000E94F00B0E942F1088869986A885B9856A
:10067A0012970CF443C200E010E02FEF3FEFA40101
:10068A00041715078CF50E94EB0BAC91A83249F4BC
:10069A00E1E0F0E0EE83FF83A02FA05D0E946506F3
:1006AA0098010E94EB0BAC91A932D9F4E0E0EE83F9
:1006BA00EF83A02FA05D0E946506A801EFEFFFEF70
:1006CA00E217F30761F0A0E2B2E0A20FB31FE8E776
:1006DA00EC930E94EB0BE8E70E945F0C01C071C12A
:1006EA0003C00F5F1F4FCCCFAE81BF81119709F4B2
:1006FA0068C1F90131968F0104171507F4F40E94B5
:10070A00EB0BAC91AE36B1F40E94660C09F459C1F8
:10071A000E94DC0BEA0FFB1F0F010E94730C0E9460
:10072A00760C0E94D20DD0010E947B0C0E94EB0B2A
:10073A000E94800C0F5F1F4FDFCFF90131968F01A6
:10074A00041715070CF060C00E94EB0BAC91A3379D
:10075A00D1F40E94660C09F434C10E94DC0BEA0F42
:10076A00FB1FFF93EF930E94730C0E94760CDF012C
:10077A00CB010E94060BAF91BF910E947B0C0E9495
:10078A00EB0B0E94800C0E94EB0BAC91A336D1F4C8
:10079A000E94660C09F415C10E94DC0BEA0FFB1FCC
:1007AA00FF93EF930E94730C0E94760CDF01CB013A
:1007BA000E948E0BAF91BF910E947B0C0E94EB0BA3
:1007CA000E94800C0E94EB0BAC91A437D1F40E94DA
:1007DA00660C09F4F6C00E94DC0BEA0FFB1FFF93BC
:1007EA00EF930E94730C0E94760CDF01CB010E94EA
:1007FA009B0BAF91BF910E947B0C0E94EB0B0E9456
:10080A00800C0F5F1F4F9CCFF90131968F0104179F
:10081A0015070CF03FC00E94EB0BAC91A536C1F452
:10082A000E94660C09F4CDC00E94DC0BEA0FFB1F84
:10083A00FF93EF930E94730C0E94760C0E94880C1F
:10084A00AF91BF910E947B0C0E94EB0B0E94800C1F
:10085A000E94EB0BAC91AC36D1F40E94660C09F401
:10086A00B0C00E94DC0BEA0FFB1FFF93EF930E94BC
:10087A00730C0E94760CDF01CB010E94A209AF9192
:10088A00BF910E947B0C0E94EB0B0E94800C0F5FB1
:10089A001F4FBDCFF90131968F01041715070CF0D0
:1008AA004FC00E94EB0BAC91AE3541F50E948C0C07
:1008BA0019F00E949E0C09F484C00E94DC0BEA0F16
:1008CA00FB1FFF93EF930E94A40C0E94760C0E94D8
:1008DA000910EE85FF850E94550C0E94760CDF01F7
:1008EA00CB010E94B80AAF91BF910E94A70C0E9447
:1008FA00AC0C0E94EB0BEEE40E945F0C0E94EB0B27
:10090A00AC91A335D1F40E94660C09F45AC00E9436
:10091A00DC0BEA0FFB1FFF93EF930E94730C0E94FC
:10092A00760CDF01CB010E947B0FAF91BF910E9431
:10093A007B0C0E94EB0B0E94800C0F5F1F4FADCF08
:10094A00F90131968F01041715070CF068C00E944F
:10095A00EB0BAC91AA3251F50E948C0C19F00E9453
:10096A009E0C09F42EC00E94DC0BEA0FFB1FFF93BA
:10097A00EF930E94A40C0E94760C7F936F93FF93CF
:10098A00EF930E94730C0E94760CAF91BF918F91E6
:10099A009F910E94C80EAF91BF910E94A70C0E941E
:1009AA00AC0C0E94EB0BEEE40E945F0C0E94EB0B76
:1009BA00AC91AF3289F50E948C0C19F00E949E0C02
:1009CA0041F4E3EAF9E76BEE7CE40E9436102E96D6
:1009DA0008950E94DC0BEA0FFB1FFF93EF930E941E
:1009EA00A40C0E94760C7F936F93FF93EF930E945F
:1009FA00730C0E94760CAF91BF918F919F910E94C8
:100A0A00160FAF91BF910E94A70C0E94AC0C0E94D6
:100A1A00EB0BEEE40E945F0C0F5F1F4F94CFF901BE
:100A2A0031968F01041715070CF067C00E94EB0B73
:100A3A00AC91AB3269F50E948C0C19F00E949E0CA5
:100A4A0021F40E94AF0C0C94B60A0E94DC0BEA0F48
:100A5A00FB1FFF93EF930E94A40C0E94760C7F93D6
:100A6A006F93FF93EF930E94730C0E94760CAF91E1
:100A7A00BF918F919F910E94780EAF91BF910E9472
:100A8A00A70C0E94AC0C0E94EB0BEEE40E945F0CD8
:100A9A000E94EB0BAC91AD3269F50E948C0C19F0F7
:100AAA000E949E0C21F40E94AF0C0C94B60A0E947C
:100ABA00DC0BEA0FFB1FFF93EF930E94A40C0E942A
:100ACA00760C7F936F93FF93EF930E94730C0E94AF
:100ADA00760CAF91BF918F919F910E94B60CAF9106
:100AEA00BF910E94A70C0E94AC0C0E94EB0BEEE493
:100AFA000E945F0C0F5F1F4F95CFB8CD00E010E04A
:100B0A000815190584F40E94EB0BAC91AE3441F43C
:100B1A000E94DC0B0E94760C0E9436100C94B60AD6
:100B2A000F5F1F4FEDCFE091A001F091A1016091FD
:100B3A00A2017091A3010E9436100C94B60A0E9479
:100B4A00BB0CEA81FB8131978F011123AAF00E9425
:100B5A00EB0BAC91AE3411F4F80107C00E94EB0B19
:100B6A00AC91A83731F0EFEFFFEF19810881249695
:100B7A00089501501040E9CF0E94C20C0C94990BC1
:100B8A000E94BB0CEC81FD8131968F01EA81FB81C9
:100B9A000E171F07A4F40E94EB0BAC91AE3421F49C
:100BAA00F8011981088151C00E94EB0BAC91A8375A
:100BBA0019F00E94C20C49C00F5F1F4FE7CF0E9475
:100BCA00C20C43C00E942F1000E010E02FEF3FEF4D
:100BDA0040E050E000E010E00430E0E01E0794F549
:100BEA00F801EC5AFF4F049002BA829902C020E041
:100BFA0030E0819902C021E030E0809902C022E011
:100C0A0030E0EFEFFFEFE217F307A9F0F801A3E0F6
:100C1A00B0E00E94D40FE20FF31FAF012FEF3FEFB6
:100C2A00829BFECF819BFECF809BFECFFA01E85AC2
:100C3A00FF4FE49108C0A5E0B0E00E94AB0D0F5F42
:100C4A001F4FCACFC7CF0E94361026960895AA937F
:100C5A00EBB3EF70AE2FE881E07FEA2BEBBB87E0C6
:100C6A008A95F1F7DA9A87E08A95F1F7DA9887E0B8
:100C7A008A95F1F779C0AA93A881E9DFE881E2951C
:100C8A00E883A881E4DF83E48A95F1F76DC0AA932B
:100C9A00E881F0E0E05CFD4FE081A981AE0FEBDF77
:100CAA00D980C88022960895A2E00E94C70CACE0C1
:100CBA00E2DFA1E00E94C70CE0E0CE2EDE2E08950E
:100CCA00AA93A881AA3021F0E0914402DE1648F0E6
:100CDA00E0E0EA93C394AC2DDADFA881AA3009F4E4
:100CEA0043C0D394D89AA881C6DFD8983DC0BA9396
:100CFA00AA931A93A981BA81ED91A983BA831E2F67
:100D0A00E03019F0A12FDCDFF5CF18812396089582
:100D1A00AA93EAB3E06FEABBD29AD09AD19ADA9848
:100D2A00D898D998E881E0934402E058E0934202C7
:100D3A00E881E054E0934302A4E1B0E00E94AB0DE5
:100D4A000E94CD0C0E94CD0C0E94CD0CA0E27FDF48
:100D5A0085E88A95F1F7A8E28EDFA4E08CDFA5E8A2
:100D6A008ADFA6E088DFA0DF21960895BA93AA93C6
:100D7A001A930A93AA81BB8112960E94E70F3097B1
:100D8A0059F1AA81BB8114960E94E70F8F0130970F
:100D9A0061F00230E0E01E0798F0F80131978F0108
:100DAA00AA81BB811496ED93FC93AA81BB8112960A
:100DBA00ED91FD913196FE93EE933197AC81A0832C
:100DCA00AA81BB810E94E70FFF232AF0ED91FD91D2
:100DDA003196FE93EE9306C0AA81BB81EFEFFFEF37
:100DEA00ED93FC931981088125960895BA93AA93E5
:100DFA0026970E942F1010E0AC85BD85E0E0F0E058
:100E0A00ED93FC93EA89FB893196EA8BFB8B319748
:100E1A00E4912E2FE03009F415C1E12FE03039F4C6
:100E2A00253211F411E002C00E94D40C0AC1E1304B
:100E3A00A9F4253219F40E94D40C02C112E040E050
:100E4A0000E02D3211F401E0FCC02B3211F44BE228
:100E5A00F8C0203211F440E2F4C002C0E23039F4A2
:100E6A0050E013E0203311F40068EBC003C0E33014
:100E7A0009F0E7C0203310F02A3308F007C0AAE0CF
:100E8A005A9F502DE22FE0535E0FDBC0E22FE3366C
:100E9A0049F40E94DB0CE889F989A481AA930E948B
:100EAA00E10CCEC0E33741F40E94DB0C0E94E70C50
:100EBA000E947D081E2F0AC0E03761F40E94DB0CF5
:100ECA000E94E70C0E9489081E2F086002600F77B3
:100EDA0030E034C0E43611F0E93611F4046002C09F
:100EEA00E53731F4E4E6F0E0EE83FF8315E00CC069
:100EFA00E83511F4086003C0E83709F0A1C0EEE64E
:100F0A00F0E0EE83FF8314E002FF14C00E94DB0CC2
:100F1A000E94F10CAB85AA233AF4EA85FB850E946C
:100F2A00B60FEA87FB874DE2403011F01F5F01C020
:100F3A000B7F04C00E94DB0C0E94F10C00FD11C063
:100F4A00151778F407FF08C002FF04C00B7F242F8F
:100F5A00115001C020E301C020E20E94D40C51507C
:100F6A00EFCF312F01FF17C03030A1F003FF06C0C9
:100F7A00EE81FF812591EE83FF8305C0AE81BF819B
:100F8A002D91AE83BF830E94D40C503009F051508A
:100F9A003150EACF4BC020E3EE81FF810E94F60F69
:100FAA00E887F987EE81FF813296EE83FF83E88531
:100FBA00F985AA85BB85AE17BF0750F02F5FA885B4
:100FCA00B985EA85FB85EA1BFB0BEA87FB87EFCF2E
:100FDA002A3328F003FF02C0295F01C0295D04FDFE
:100FEA001AC0213320F4A885B985119709F409C0DC
:100FFA00531710F000FF01C013C020E207FF0BC017
:10100A0020E3006102FF07C00B7F4A930E94E10CB4
:10101A00503009F051500E94D40C503009F0515010
:10102A003150A885B985129708F0B5CF00FF08C0DE
:10103A00503031F05150E0E2EA930E94E10CF8CFCF
:10104A0010E0E0CEAC85BD850E94E70F0E94361005
:10105A0064960895FF92F82E26970E9431100E94F6
:10106A00F90C309719F4EFEFFFEF23C0DE01169663
:10107A000E94B20F8D010E94F90CEE83FF83E0E01B
:10108A00E887E987DE011A960E94B20F0E94E70FED
:10109A00FA93EA931A930A93EBEBF6E0FA93EA933C
:1010AA00DE011A96A3DE9F01AE81BF81E0E0EC93D8
:1010BA00F9010E9438102A96FF900895BA93AA93CC
:1010CA00E991F991A991B991CD0161916D93662345
:1010DA00E1F7FC010895BA93AA93E991F991A991CC
:1010EA00B991CD0105900D920020E1F7FC01089518
:1010FA00BA93AA93A991B991EE27FF276D91662316
:10110A0011F03196FBCF0895BA93AA93AA27BB2769
:10111A00E991F9910590002011F01196FBCFFD019C
:10112A000895BA93AA9324970E94F00BE0E0EA8309
:10113A00EFE3EB831A930A93EB85FC85EF3FAFEF5E
:10114A00FA0739F40E94000DA4E7B1E00E94700882
:10115A00AFC0EF3FAFE7FA0739F40E94000DA5E7E9
:10116A00B1E00E947008A4C0AC85AA2362F4E985A4
:10117A00FA856B857C850E94D20D0E94050D0E941E
:10118A000A0DEDE2EC93A885A73010F0E6E0E887B7
:10119A001885E12F1150E03039F00E94110D0E949C
:1011AA00160D0E941D0DF5CF0E94220D0E94780E89
:1011BA000E94050D10E00E942B0D0E941D0D0E9439
:1011CA00220D0E945B0F88F00E94110D0E94300DC3
:1011DA000E941D0D1F5F173238F00E94000DA9E70B
:1011EA00B1E00E94700864C0EACF103029F40E946E
:1011FA000A0DE0E3EC932FC0E12F1150E03059F1D2
:10120A000E94110D0E94160DA0E0B0E080E09FE35D
:10121A000E94780EDF01CB010E9492090E941D0DE7
:10122A000E94220D0E94160F0E94050E0E2F0E9488
:10123A000A0DE02FE05DEC93E02FF0E00E94110D23
:10124A000E94370D0E94C80E0E943C0D0E94B60CE7
:10125A000E94050DD1CFE885E03031F10E940A0DD8
:10126A00EEE2EC93E885E150E887EF5FE9F00E944F
:10127A003C0D0E94300D0E94050DE985FA856B85AB
:10128A007C850E94050E0E2F0E940A0DE02FE05D5C
:10129A00EC93E02FF0E00E943C0D0E94370D0E9473
:1012AA00B60C0E94050DDECFAE81BF81E0E0EC9363
:1012BA00198108812D9608950E940E107B816A81FA
:1012CA00F981E88177FB770F67FD7160972F9E5749
:1012DA0081F078F0983190F4AA27BB2788270894E0
:1012EA008795B795A7959A95D1F7EA23FB236823A3
:1012FA0005C0E8947727EE27FF2766276F7776954C
:10130A0008F4606877F9A991B99189919991EA17D6
:10131A00FB076807790797FB08950E94410D0E9411
:10132A0061090E94041019F40E94460DFDC1E6F7F6
:10133A000E94460D0E94490DF7C10E940E10249783
:10134A001A930A930E94500D0E9424102CF0EFEF7A
:10135A00FFEF6FE77FEF73C00E94550D0E940910DF
:10136A00ADB7BEB711971F930F930E94B50D0F919A
:10137A001F910E945A0D0E94500DE3EFF4E065E3BD
:10138A007FE30E945B0F40F40E945F0D0E94780E7B
:10139A000E945A0D015010400E94550D0E94490D9D
:1013AA007F936F93FF93EF930E94550DA0E0B0E0F7
:1013BA0080E89FE30E94780EAF91BF918F919F9131
:1013CA000E94160F0E945A0D0E945F0D0E94610D25
:1013DA00A6E2B2E485E69FE30E94C80EDF01CB01D4
:1013EA00EEE4F1E164E570E40E94B60C0E94500D4F
:1013FA000E94C80E7F936F93FF93EF930E94690D2B
:10140A00ADE4B1E184ED9FE30E94710EAF91BF910B
:10141A008F919F910E94160F7F936F93FF93EF9383
:10142A00F8010E94370DA8E1B2E781E39FE30E9429
:10143A00C80EAF91BF918F919F910E94780E19812A
:10144A0008812A9608950E940E1028971A930A93E3
:10145A000E946E0DE0E5FCEA6EEA72EC0E945B0FF8
:10146A0018F40E94730D7BC0EA85FB856C857D8527
:10147A000E94201019F40E942B0D71C00E946E0D5B
:10148A00E8E1F2E761EB72E40E945B0F09F008F40D
:10149A0005C0EFEFFFEF6FE77FE761C00E946E0DB7
:1014AA00EBE3FAEA68EB7FE30E94C80EEA87FB8760
:1014BA006C877D870E946E0D30DF0E94070E8F01B8
:1014CA000E946E0D0E94370D0E94B60CDF01CB01FF
:1014DA000E94780D0E94B60C0E945A0D0E945F0D60
:1014EA000E94610DADE6BCE48CE69DE30E94C80E45
:1014FA00A6EAB3EE86EE90E40E94780E0E94500DA2
:10150A000E94C80E0E945A0D0E94690DA8E2BDE809
:10151A0086EA91E40E94780E0E941D0D0E94550DE4
:10152A000E94110D0E94780EA3EFB4E085EB9FE3B1
:10153A000E94C80E7F936F93FF93EF930E94500D02
:10154A000E94690D0E94710EAF91BF918F919F9178
:10155A000E94160F0E940910D8010E94C60D198117
:10156A0008812E9608950E940E1024970E947D0DE0
:10157A000E94201019F40E94730D41C0A885B985F4
:10158A008A859B850E9424107CF40E94820D0E9409
:10159A00201019F40E942B0D32C0A885B9858A85BE
:1015AA009B850E94870D2BC00E94820DDE010E943E
:1015BA00070E0E94F10F0E94460D0E943E0EDF01A7
:1015CA00CB010E94820D0E942A1019F00E94730D0D
:1015DA0016C00E947D0D0E94D20DDF01CB010E9430
:1015EA00870DE887F9876A877B87E881E17019F4B4
:1015FA000E947D0D04C00E947D0D0E94D20D2C9682
:10160A0008950E940E1024971A9310E00E94900DDC
:10161A00E3E8F9EF62E27EE30E94C80E0E94950DAC
:10162A007CDE0E94900D0E94B60C0E94950D0E94CD
:10163A00780D0E945B0F09F008F409C00E949A0D08
:10164A00A0E0B0E080E09FE30E949F0D11E00E94BD
:10165A00900DE0E0F0E060E87EE30E945B0F09F0A5
:10166A0008F406C00E94900D0E94780D0E949F0DFA
:10167A00103041F00E949A0D0E94D20DED83FE8334
:10168A006F8378870E949A0D0E94900D0E94C80E5F
:10169A00E983FA836B837C830E94220CA1EBB4EC6E
:1016AA0086E292E40E94C80EDF01CB01EDE1F5EE7D
:1016BA006DE272E40E94B60C0E94160C0E94C80EDB
:1016CA00ACE4B3E584E091E40E94780E0E94900DA8
:1016DA000E94C80E7F936F93FF93EF930E94220C90
:1016EA00A1E1BDEE8EED9FE30E94780E0E94160CDA
:1016FA000E94C80EAEE5BBE788EA9FE30E94780E17
:10170A00AF91BF918F919F910E94160F18812996D0
:10171A0008950E94410DEBEDFFE069EC7FE30E9422
:10172A00710EDF01CB016DDF249608950E940E1021
:10173A0024970E94A60DEDDF0E9404100E9420103B
:10174A0079F40E94A60D0E9424102CF4EFEFFFEF0B
:10175A006FE77FE70EC0EFEFFFEF6FE77FEF09C09C
:10176A000E94A60D4EDFDF01CB010E94460D0E94AA
:10177A00160F28960895E0E6F1E0FA93EA930895A1
:10178A00EEE7F0E0FA93EA9380E00E942F082496AD
:10179A000895E0E8F1E0FA93EA930895EBE9F0E0BE
:1017AA00FA93EA9380E00E942F0824960895F8019C
:1017BA00A0EAB1E00E94C20F0895AE0FBF1FE0E099
:1017CA00F0E060E070E00E94F10F0895A0E2B2E05C
:1017DA00A00FB11F0895E0E0E883E9830895E1E0EE
:1017EA00F0E0EA15FB050895F401A0EAB1E00E94D1
:1017FA00C20FAE0FBF1FF3010E94C70F0E943E0E19
:10180A000E94F10F0895AA24BB24A0E2B2E0A80D19
:10181A00B91DEEE4EC93F40131964F016624772466
:10182A000895A981BA818B819C810895FA93EA93DC
:10183A0080E00E942F0824960895E981FA816B813D
:10184A007C810895FE013F96FA93EA930895FA93EC
:10185A00EA93E0E8F1E0662777270E9409100895E5
:10186A000E94091088E00E942F082C9692CFDE0170
:10187A0051960C946308442455247DCFA0E2B2E02B
:10188A00A80DB91D0895EEE4EC93F40131964F01C9
:10189A0066247724089584E00E942F082896EECFC4
:1018AA00A0EAB1E00E94C20F0895E05EFD4FA8E7EA
:1018BA00A0830895EC93E885F9853297E887F9873C
:1018CA0008951A930A93DA010E94C505EA87FB87ED
:1018DA00AA85BB85AF3FEFEFBE070895EA85FB8572
:1018EA00DFCFAE0FBF1F0E94EB0F08950E94F10FCA
:1018FA00EA85FB85DACFEEE4EC93E885F985319742
:10190A00E887F9870895DF01CB010C94280AD801EA
:10191A000E94A405EC87FD871A930A93DA010E94B4
:10192A00C505EA87FB87AC85BD85AF3FEFEFBE07EC
:10193A000895AA85BB85AF3FEFEFBE070895EC85F2
:10194A00FD85AECF0E94F10FEC85FD85AECFEA850D
:10195A00FB85ABCFE3EAF9E76BEE7CE40E94361035
:10196A0008950E9413100E94710E0895BA93AA93C3
:10197A001A930A9300E010E00895EFEFFFEF198140
:10198A00088108950E944006A3E0B0E00C94AB0DD4
:10199A00A0E30E942C0685E88A95F1F708952A9318
:1019AA00AD85BE85EF85F88909950895E889F98995
:1019BA003497E88BF98B0895AD85BE85EF85F88954
:1019CA0009950895A889B98914960E94E70FEE83AC
:1019DA00FF83AE81BF810895A889B98914960E94B0
:1019EA00E70FEA87FB870895DE011C960E94B20F73
:1019FA000E94E70F0895EE81FF81FA93EA93089512
:101A0A00E987FA876B877C870895AE81BF81119633
:101A1A00AE83BF8311970895AA81BB818C819D8172
:101A2A000895EDECFCEC6CEC7DE30E94C80E089581
:101A3A00EA83FB836C837D830895EA81FB816C8151
:101A4A007D81A985BA858B859C850895E0E0F0E0C3
:101A5A0060E87FE30895E0E0F0E060E271E40E946C
:101A6A00C80E08950E94C70F0E943E0E0895A985C8
:101A7A00BA858B859C8508950E940E100E94FF0FDF
:101A8A0008950E94FA0F0895A0E0B0E080E89FE36D
:101A9A000E94710E0895AE81BF8188859985089547
:101AAA00EE81FF81688579850895EE83FF836887D3
:101ABA0079870895F5DFEFCF0E94C80EB9DFEA8172
:101ACA00FB816C817D810895EA81FB816C817D8136
:101ADA000895AA85BB858C859D850895E0E0F0E090
:101AEA0060E070E00895E0E0F0E060E07FE30895F0
:101AFA00E885F9856A857B850895EC81FD816E818B
:101B0A007F8108950E94A209AC81BD818E819F8147
:101B1A000E94C80EF8CEAD81BE818F819885089546
:101B2A00ED83FE836F837887F6CFED81FE816F8127
:101B3A00788508950E94710EED83FE836F837887FE
:101B4A000895AC81BD818E819F810895109639F0E8
:101B5A0088EE93E00197F1F7A8951197C9F70895D0
:101B6A00E991F9916991799177FB660F771F882737
:101B7A007E57880B7D938C937EE7769567956EF0FA
:101B8A000895E991F9916991799177FB660F771F29
:101B9A007A0F769567950EF00895309760407040F9
:101BAA0009F070580895552342F4503811F4E0FFB3
:101BBA0004C03196691F791F6BF050E8572711F45A
:101BCA005F93CFC05F3F31F0660F000C5795679562
:101BDA00752F08955F9300200AF0CFC0C8C050E85F
:101BEA00192E1522880F991F9527550F879550E8AA
:101BFA00072E0522660F771F7527550F67950895DB
:101C0A00689401C0E8945F93F2DF703818F07F3F60
:101C1A0008F4A7C056E1571BAAF4519558300EF4A0
:101C2A00593030F0EFEFFFEF6FEF7FE777F91AC027
:101C3A0077275523B9F0EE0FFF1F661F771F5A95B6
:101C4A00D1F710C07727583028F0EF2FF62F672FDB
:101C5A005850F9CF552331F076956795F795E79562
:101C6A005A95D1F700200AF480D15F9108956894BB
:101C7A0001C0E894309760407040B1F0002426F02B
:101C8A00772312F4009471D1172E7EE1112032F0DD
:101C9A007A95EE0FFF1F661F111CF9CFEF2FF62F53
:101CAA00612D5F938ADF5F9108954F93AF01FD0124
:101CBA00DA01AB01BC01CA01402D012C142E4F914F
:101CCA000895EA0FFB1F681F0895E095F095609547
:101CDA00EF5FFF4F6F4F08955F9381DF903871F187
:101CEA0050E8152604C05F937ADF903839F17038CE
:101CFA0021F1572F591B2BF112F4D7DFFACF5831A4
:101D0A0018F0AA27BB278827583028F0AB2FB82FFE
:101D1A0088275850F9CF552329F08695B795A79566
:101D2A005A95D9F7502D512572F0CBDF38F46795C3
:101D3A00F795E795739513F420C0B7DF3EDF5F91FF
:101D4A000895D8F7FBCFEA1BFB0B680B51F010F490
:101D5A000094BBDF662392F3EE0FFF1F661F7A958E
:101D6A00CBF7EE27FF27662777275F910895EFEFD6
:101D7A00FFEF6FE77FEF5F910895EFEFFFEF6FE7F8
:101D8A007FE75F9108955F932ADF703851F39038A7
:101D9A0041F301240894791F23F41CF300203AF339
:101DAA00ECCF0F921F932F933F934F931127222724
:101DBA009927689FA0018F9F302D410D591F6B9F56
:101DCA00300D411D591F8E9F27D0BF9F25D06A9F76
:101DDA0023D0BE9F1DD0AF9F1BD0AE9F110D291FD0
:101DEA00391F491F591FE32FF42F652F522F4F9187
:101DFA003F912F911F910F9066232AF0550FEE1FE6
:101E0A00FF1F661F02C073954BF2CDDE5F910895E6
:101E1A00100D211D391F02C0200D311D491F591FE8
:101E2A0008955F93DCDE703821F411200AF49FCF05
:101E3A00A4CF903809F495CF01240894970B1BF48A
:101E4A00D4F30020F3CF792F1F932F933F934F930F
:101E5A0011241127222733274427552790E2AE174A
:101E6A00BF078607410730F0AE1BBF0B860B410B3D
:101E7A00089401C08894551F221F331F111CAA1FE2
:101E8A00BB1F881F441F9A9551F7F901612D4F9185
:101E9A003F912F911F91662332F0550FEE1FFF1FBE
:101EAA00661F7A9543F27FDE5F91089599239AF02F
:101EBA00772342F0971748F029F4AE17BF07860731
:101ECA0020F031F09894889408959894089408958D
:101EDA001894889408957723C2F7971798F3A9F767
:101EEA00EA17FB07680788F399F3ECCF92D0249797
:101EFA005F939F81992311F4289633CF12F4289681
:101F0A003CCF4F9342E48E81BD81AC818883998313
:101F1A00AA83BB83FD01BC01AC81BD818E819F81F7
:101F2A0080DF88819981AA81BB81DDDE60DE7A95B6
:101F3A0044DE88819981AA81BB81AE27A87F21F4DA
:101F4A00BF178607970729F04A9519F0DF01CB01D9
:101F5A00DDCF4F915F91289608950024AF0DB01DF3
:101F6A000895F195E195F0400895F0956095709582
:101F7A00E195FF4F6F4F7F4F0895EE0FFF1FEE0F52
:101F8A00FF1F08956F2F660F660B762F0895FA9F2D
:101F9A00F02DEB9FF00DEA9FE02DF10D089504D08E
:101FAA00F6DF0EF4DEDF0895E894F7FF02C0D9DF0A
:101FBA006894B7FF06C0A095B095119600F80394EF
:101FCA0000FA0895ED91FC9111970895ED91FD9114
:101FDA006D917C9113970895ED93FD936D937C9386
:101FEA0008950590F491E02D0895E881F9816A81B8
:101FFA007B810895A881B9818A819B810895E883AC
:10200A00F9836A837B8308957A936A93FA93EA93AE
:10201A0008959A938A93BA93AA930895182E862FAD
:10202A00612D192E972F712D1B2EBF2FF12D1A2ED0
:10203A00AE2FE12D08953097604070400895002436
:10204A000A160B06080609060895EA17FB07680729
:10205A00790708955A934A933A932A931A930A93BB
:10206A0008955D814C813B812A81198108810895F7
:00000001FF
